{
  "contractName": "ERC20",
  "abi": [
    {
      "inputs": [
        {
          "internalType": "string",
          "name": "name",
          "type": "string"
        },
        {
          "internalType": "string",
          "name": "symbol",
          "type": "string"
        },
        {
          "internalType": "uint8",
          "name": "decimals",
          "type": "uint8"
        },
        {
          "internalType": "uint256",
          "name": "totalSupply",
          "type": "uint256"
        }
      ],
      "stateMutability": "nonpayable",
      "type": "constructor"
    },
    {
      "anonymous": false,
      "inputs": [
        {
          "indexed": true,
          "internalType": "address",
          "name": "owner",
          "type": "address"
        },
        {
          "indexed": true,
          "internalType": "address",
          "name": "spender",
          "type": "address"
        },
        {
          "indexed": false,
          "internalType": "uint256",
          "name": "value",
          "type": "uint256"
        }
      ],
      "name": "Approval",
      "type": "event"
    },
    {
      "anonymous": false,
      "inputs": [
        {
          "indexed": true,
          "internalType": "address",
          "name": "burner",
          "type": "address"
        },
        {
          "indexed": true,
          "internalType": "address",
          "name": "account",
          "type": "address"
        },
        {
          "indexed": false,
          "internalType": "uint256",
          "name": "amount",
          "type": "uint256"
        }
      ],
      "name": "Burn",
      "type": "event"
    },
    {
      "anonymous": false,
      "inputs": [
        {
          "indexed": true,
          "internalType": "address",
          "name": "minter",
          "type": "address"
        },
        {
          "indexed": true,
          "internalType": "address",
          "name": "account",
          "type": "address"
        },
        {
          "indexed": false,
          "internalType": "uint256",
          "name": "amount",
          "type": "uint256"
        }
      ],
      "name": "Mint",
      "type": "event"
    },
    {
      "anonymous": false,
      "inputs": [
        {
          "indexed": false,
          "internalType": "address",
          "name": "account",
          "type": "address"
        }
      ],
      "name": "Paused",
      "type": "event"
    },
    {
      "anonymous": false,
      "inputs": [
        {
          "indexed": true,
          "internalType": "address",
          "name": "from",
          "type": "address"
        },
        {
          "indexed": true,
          "internalType": "address",
          "name": "to",
          "type": "address"
        },
        {
          "indexed": false,
          "internalType": "uint256",
          "name": "value",
          "type": "uint256"
        }
      ],
      "name": "Transfer",
      "type": "event"
    },
    {
      "anonymous": false,
      "inputs": [
        {
          "indexed": false,
          "internalType": "address",
          "name": "account",
          "type": "address"
        }
      ],
      "name": "Unpaused",
      "type": "event"
    },
    {
      "inputs": [],
      "name": "isOwner",
      "outputs": [
        {
          "internalType": "bool",
          "name": "",
          "type": "bool"
        }
      ],
      "stateMutability": "view",
      "type": "function",
      "constant": true
    },
    {
      "inputs": [],
      "name": "owner",
      "outputs": [
        {
          "internalType": "address",
          "name": "",
          "type": "address"
        }
      ],
      "stateMutability": "view",
      "type": "function",
      "constant": true
    },
    {
      "inputs": [],
      "name": "pause",
      "outputs": [],
      "stateMutability": "nonpayable",
      "type": "function"
    },
    {
      "inputs": [],
      "name": "paused",
      "outputs": [
        {
          "internalType": "bool",
          "name": "",
          "type": "bool"
        }
      ],
      "stateMutability": "view",
      "type": "function",
      "constant": true
    },
    {
      "inputs": [],
      "name": "unpause",
      "outputs": [],
      "stateMutability": "nonpayable",
      "type": "function"
    },
    {
      "inputs": [],
      "name": "name",
      "outputs": [
        {
          "internalType": "string",
          "name": "",
          "type": "string"
        }
      ],
      "stateMutability": "view",
      "type": "function",
      "constant": true
    },
    {
      "inputs": [],
      "name": "symbol",
      "outputs": [
        {
          "internalType": "string",
          "name": "",
          "type": "string"
        }
      ],
      "stateMutability": "view",
      "type": "function",
      "constant": true
    },
    {
      "inputs": [],
      "name": "decimals",
      "outputs": [
        {
          "internalType": "uint8",
          "name": "",
          "type": "uint8"
        }
      ],
      "stateMutability": "view",
      "type": "function",
      "constant": true
    },
    {
      "inputs": [],
      "name": "totalSupply",
      "outputs": [
        {
          "internalType": "uint256",
          "name": "",
          "type": "uint256"
        }
      ],
      "stateMutability": "view",
      "type": "function",
      "constant": true
    },
    {
      "inputs": [
        {
          "internalType": "address",
          "name": "_to",
          "type": "address"
        },
        {
          "internalType": "uint256",
          "name": "_value",
          "type": "uint256"
        }
      ],
      "name": "transfer",
      "outputs": [
        {
          "internalType": "bool",
          "name": "",
          "type": "bool"
        }
      ],
      "stateMutability": "nonpayable",
      "type": "function"
    },
    {
      "inputs": [
        {
          "internalType": "address",
          "name": "_owner",
          "type": "address"
        }
      ],
      "name": "balanceOf",
      "outputs": [
        {
          "internalType": "uint256",
          "name": "balance",
          "type": "uint256"
        }
      ],
      "stateMutability": "view",
      "type": "function",
      "constant": true
    },
    {
      "inputs": [
        {
          "internalType": "address",
          "name": "_from",
          "type": "address"
        },
        {
          "internalType": "address",
          "name": "_to",
          "type": "address"
        },
        {
          "internalType": "uint256",
          "name": "amount",
          "type": "uint256"
        },
        {
          "internalType": "uint256",
          "name": "nonce",
          "type": "uint256"
        },
        {
          "internalType": "bytes",
          "name": "_sender_signature",
          "type": "bytes"
        },
        {
          "internalType": "bytes",
          "name": "_recipient_signature",
          "type": "bytes"
        }
      ],
      "name": "commitReceiptTransaction",
      "outputs": [],
      "stateMutability": "nonpayable",
      "type": "function"
    },
    {
      "inputs": [
        {
          "internalType": "address",
          "name": "_spender",
          "type": "address"
        },
        {
          "internalType": "uint256",
          "name": "_value",
          "type": "uint256"
        }
      ],
      "name": "approve",
      "outputs": [
        {
          "internalType": "bool",
          "name": "",
          "type": "bool"
        }
      ],
      "stateMutability": "nonpayable",
      "type": "function"
    },
    {
      "inputs": [
        {
          "internalType": "address",
          "name": "_from",
          "type": "address"
        },
        {
          "internalType": "address",
          "name": "_to",
          "type": "address"
        },
        {
          "internalType": "uint256",
          "name": "_value",
          "type": "uint256"
        }
      ],
      "name": "transferFrom",
      "outputs": [
        {
          "internalType": "bool",
          "name": "",
          "type": "bool"
        }
      ],
      "stateMutability": "nonpayable",
      "type": "function"
    },
    {
      "inputs": [
        {
          "internalType": "address",
          "name": "_owner",
          "type": "address"
        },
        {
          "internalType": "address",
          "name": "_spender",
          "type": "address"
        }
      ],
      "name": "allowance",
      "outputs": [
        {
          "internalType": "uint256",
          "name": "",
          "type": "uint256"
        }
      ],
      "stateMutability": "view",
      "type": "function",
      "constant": true
    },
    {
      "inputs": [
        {
          "internalType": "address",
          "name": "_spender",
          "type": "address"
        },
        {
          "internalType": "uint256",
          "name": "_addedValue",
          "type": "uint256"
        }
      ],
      "name": "increaseApproval",
      "outputs": [
        {
          "internalType": "bool",
          "name": "",
          "type": "bool"
        }
      ],
      "stateMutability": "nonpayable",
      "type": "function"
    },
    {
      "inputs": [
        {
          "internalType": "address",
          "name": "_spender",
          "type": "address"
        },
        {
          "internalType": "uint256",
          "name": "_subtractedValue",
          "type": "uint256"
        }
      ],
      "name": "decreaseApproval",
      "outputs": [
        {
          "internalType": "bool",
          "name": "",
          "type": "bool"
        }
      ],
      "stateMutability": "nonpayable",
      "type": "function"
    },
    {
      "inputs": [
        {
          "internalType": "address",
          "name": "_to",
          "type": "address"
        },
        {
          "internalType": "uint256",
          "name": "_amount",
          "type": "uint256"
        }
      ],
      "name": "mintTo",
      "outputs": [],
      "stateMutability": "nonpayable",
      "type": "function"
    },
    {
      "inputs": [
        {
          "internalType": "address",
          "name": "_from",
          "type": "address"
        },
        {
          "internalType": "uint256",
          "name": "_amount",
          "type": "uint256"
        }
      ],
      "name": "burnFrom",
      "outputs": [],
      "stateMutability": "nonpayable",
      "type": "function"
    }
  ],
  "bytecode": "0x60806040523480156200001157600080fd5b506040516200192738038062001927833981810160405260808110156200003757600080fd5b81019080805160405193929190846401000000008211156200005857600080fd5b9083019060208201858111156200006e57600080fd5b82516401000000008111828201881017156200008957600080fd5b82525081516020918201929091019080838360005b83811015620000b85781810151838201526020016200009e565b50505050905090810190601f168015620000e65780820380516001836020036101000a031916815260200191505b50604052602001805160405193929190846401000000008211156200010a57600080fd5b9083019060208201858111156200012057600080fd5b82516401000000008111828201881017156200013b57600080fd5b82525081516020918201929091019080838360005b838110156200016a57818101518382015260200162000150565b50505050905090810190601f168015620001985780820380516001836020036101000a031916815260200191505b5060409081526020828101519290910151600080546001600160a01b0319163317905585519294509250620001d3916002918601906200021d565b508351620001e99060019060208701906200021d565b506003805460ff191660ff939093169290921790915560048190553360009081526005602052604090205550620002c29050565b828054600181600116156101000203166002900490600052602060002090601f016020900481019282601f106200026057805160ff191683800117855562000290565b8280016001018555821562000290579182015b828111156200029057825182559160200191906001019062000273565b506200029e929150620002a2565b5090565b620002bf91905b808211156200029e5760008155600101620002a9565b90565b61165580620002d26000396000f3fe608060405234801561001057600080fd5b50600436106101215760003560e01c806370a08231116100ad57806395d89b411161007157806395d89b4114610341578063a9059cbb14610349578063d0a9473914610375578063d73dd623146104c7578063dd62ed3e146104f357610121565b806370a08231146102bb57806379cc6790146102e15780638456cb591461030d5780638da5cb5b146103155780638f32d59b1461033957610121565b8063313ce567116100f4578063313ce567146102335780633f4ba83a14610251578063449a52f81461025b5780635c975abb14610287578063661884631461028f57610121565b806306fdde0314610126578063095ea7b3146101a357806318160ddd146101e357806323b872dd146101fd575b600080fd5b61012e610521565b6040805160208082528351818301528351919283929083019185019080838360005b83811015610168578181015183820152602001610150565b50505050905090810190601f1680156101955780820380516001836020036101000a031916815260200191505b509250505060405180910390f35b6101cf600480360360408110156101b957600080fd5b506001600160a01b0381351690602001356105b6565b604080519115158252519081900360200190f35b6101eb610670565b60408051918252519081900360200190f35b6101cf6004803603606081101561021357600080fd5b506001600160a01b03813581169160208101359091169060400135610676565b61023b61095f565b6040805160ff9092168252519081900360200190f35b610259610968565b005b6102596004803603604081101561027157600080fd5b506001600160a01b038135169060200135610a46565b6101cf610c27565b6101cf600480360360408110156102a557600080fd5b506001600160a01b038135169060200135610c37565b6101eb600480360360208110156102d157600080fd5b50356001600160a01b0316610d74565b610259600480360360408110156102f757600080fd5b506001600160a01b038135169060200135610d8f565b610259610f8c565b61031d61106d565b604080516001600160a01b039092168252519081900360200190f35b6101cf61107c565b61012e61108d565b6101cf6004803603604081101561035f57600080fd5b506001600160a01b0381351690602001356110eb565b610259600480360360c081101561038b57600080fd5b6001600160a01b03823581169260208101359091169160408201359160608101359181019060a0810160808201356401000000008111156103cb57600080fd5b8201836020820111156103dd57600080fd5b803590602001918460018302840111640100000000831117156103ff57600080fd5b91908080601f016020809104026020016040519081016040528093929190818152602001838380828437600092019190915250929594936020810193503591505064010000000081111561045257600080fd5b82018360208201111561046457600080fd5b8035906020019184600183028401116401000000008311171561048657600080fd5b91908080601f0160208091040260200160405190810160405280939291908181526020018383808284376000920191909152509295506112a1945050505050565b6101cf600480360360408110156104dd57600080fd5b506001600160a01b0381351690602001356112cb565b6101eb6004803603604081101561050957600080fd5b506001600160a01b03813581169160200135166113b1565b60018054604080516020601f600260001961010087891615020190951694909404938401819004810282018101909252828152606093909290918301828280156105ac5780601f10610581576101008083540402835291602001916105ac565b820191906000526020600020905b81548152906001019060200180831161058f57829003601f168201915b5050505050905090565b60008054600160a01b900460ff1615610609576040805162461bcd60e51b815260206004820152601060248201526f14185d5cd8589b194e881c185d5cd95960821b604482015290519081900360640190fd5b3360008181526006602090815260408083206001600160a01b03881680855290835292819020869055805186815290519293927f8c5be1e5ebec7d5bd14f71427d1e84f3dd0314c0f7b2291e5b200ac8c7c3b925929181900390910190a350600192915050565b60045490565b60008054600160a01b900460ff16156106c9576040805162461bcd60e51b815260206004820152601060248201526f14185d5cd8589b194e881c185d5cd95960821b604482015290519081900360640190fd5b6001600160a01b038416610724576040805162461bcd60e51b815260206004820181905260248201527f45524332303a2066726f6d2061646472657373206973206e6f742076616c6964604482015290519081900360640190fd5b6001600160a01b03831661077f576040805162461bcd60e51b815260206004820152601e60248201527f45524332303a20746f2061646472657373206973206e6f742076616c69640000604482015290519081900360640190fd5b6001600160a01b0384166000908152600560205260409020548211156107ec576040805162461bcd60e51b815260206004820152601b60248201527f45524332303a20696e73756666696369656e742062616c616e63650000000000604482015290519081900360640190fd5b6001600160a01b0384166000908152600660209081526040808320338452909152902054821115610864576040805162461bcd60e51b815260206004820152601760248201527f45524332303a2066726f6d206e6f7420616c6c6f776564000000000000000000604482015290519081900360640190fd5b6001600160a01b0384166000908152600560205260409020546108879083611430565b6001600160a01b0380861660009081526005602052604080822093909355908516815220546108b69083611442565b6001600160a01b0380851660009081526005602090815260408083209490945591871681526006825282812033825290915220546108f49083611430565b6001600160a01b03808616600081815260066020908152604080832033845282529182902094909455805186815290519287169391927fddf252ad1be2c89b69c2b068fc378daa952ba7f163c4a11628f55a4df523b3ef929181900390910190a35060019392505050565b60035460ff1690565b61097061107c565b6109af576040805162461bcd60e51b81526020600482018190526024820152600080516020611600833981519152604482015290519081900360640190fd5b600054600160a01b900460ff16610a04576040805162461bcd60e51b815260206004820152601460248201527314185d5cd8589b194e881b9bdd081c185d5cd95960621b604482015290519081900360640190fd5b6000805460ff60a01b191690556040805133815290517f5db9ee0a495bf2e6ff9c91a7834c1ba4fdd244a5e8aa4e537bd38aeae4b073aa9181900360200190a1565b600054600160a01b900460ff1615610a98576040805162461bcd60e51b815260206004820152601060248201526f14185d5cd8589b194e881c185d5cd95960821b604482015290519081900360640190fd5b610aa061107c565b610adf576040805162461bcd60e51b81526020600482018190526024820152600080516020611600833981519152604482015290519081900360640190fd5b6001600160a01b038216610b3a576040805162461bcd60e51b815260206004820152601e60248201527f45524332303a20746f2061646472657373206973206e6f742076616c69640000604482015290519081900360640190fd5b60008111610b8f576040805162461bcd60e51b815260206004820152601a60248201527f45524332303a20616d6f756e74206973206e6f742076616c6964000000000000604482015290519081900360640190fd5b600454610ba2908263ffffffff61144216565b6004556001600160a01b038216600090815260056020526040902054610bce908263ffffffff61144216565b6001600160a01b0383166000818152600560209081526040918290209390935580518481529051919233927fab8530f87dc9b59234c4623bf917212bb2536d647574c8e7e5da92c2ede0c9f89281900390910190a35050565b600054600160a01b900460ff1690565b60008054600160a01b900460ff1615610c8a576040805162461bcd60e51b815260206004820152601060248201526f14185d5cd8589b194e881c185d5cd95960821b604482015290519081900360640190fd5b3360009081526006602090815260408083206001600160a01b038716845290915290205480831115610cdf573360009081526006602090815260408083206001600160a01b0388168452909152812055610d0e565b610ce98184611430565b3360009081526006602090815260408083206001600160a01b03891684529091529020555b3360008181526006602090815260408083206001600160a01b0389168085529083529281902054815190815290519293927f8c5be1e5ebec7d5bd14f71427d1e84f3dd0314c0f7b2291e5b200ac8c7c3b925929181900390910190a35060019392505050565b6001600160a01b031660009081526005602052604090205490565b600054600160a01b900460ff1615610de1576040805162461bcd60e51b815260206004820152601060248201526f14185d5cd8589b194e881c185d5cd95960821b604482015290519081900360640190fd5b610de961107c565b610e28576040805162461bcd60e51b81526020600482018190526024820152600080516020611600833981519152604482015290519081900360640190fd5b6001600160a01b038216610e83576040805162461bcd60e51b815260206004820181905260248201527f45524332303a2066726f6d2061646472657373206973206e6f742076616c6964604482015290519081900360640190fd5b6001600160a01b038216600090815260056020526040902054811115610ef0576040805162461bcd60e51b815260206004820152601b60248201527f45524332303a20696e73756666696369656e742062616c616e63650000000000604482015290519081900360640190fd5b6001600160a01b038216600090815260056020526040902054610f19908263ffffffff61143016565b6001600160a01b038316600090815260056020526040902055600454610f45908263ffffffff61143016565b6004556040805182815290516001600160a01b0384169133917fbac40739b0d4ca32fa2d82fc91630465ba3eddd1598da6fca393b26fb63b94539181900360200190a35050565b610f9461107c565b610fd3576040805162461bcd60e51b81526020600482018190526024820152600080516020611600833981519152604482015290519081900360640190fd5b600054600160a01b900460ff1615611025576040805162461bcd60e51b815260206004820152601060248201526f14185d5cd8589b194e881c185d5cd95960821b604482015290519081900360640190fd5b6000805460ff60a01b1916600160a01b1790556040805133815290517f62e78cea01bee320cd4e420270b5ea74000d11b0c9f74754ebdbfc544b05a2589181900360200190a1565b6000546001600160a01b031690565b6000546001600160a01b0316331490565b60028054604080516020601f60001961010060018716150201909416859004938401819004810282018101909252828152606093909290918301828280156105ac5780601f10610581576101008083540402835291602001916105ac565b60008054600160a01b900460ff161561113e576040805162461bcd60e51b815260206004820152601060248201526f14185d5cd8589b194e881c185d5cd95960821b604482015290519081900360640190fd5b6001600160a01b038316611199576040805162461bcd60e51b815260206004820152601e60248201527f45524332303a20746f2061646472657373206973206e6f742076616c69640000604482015290519081900360640190fd5b336000908152600560205260409020548211156111fd576040805162461bcd60e51b815260206004820152601b60248201527f45524332303a20696e73756666696369656e742062616c616e63650000000000604482015290519081900360640190fd5b336000908152600560205260409020546112179083611430565b33600090815260056020526040808220929092556001600160a01b038516815220546112439083611442565b6001600160a01b0384166000818152600560209081526040918290209390935580518581529051919233927fddf252ad1be2c89b69c2b068fc378daa952ba7f163c4a11628f55a4df523b3ef9281900390910190a350600192915050565b6112af86868686868b611458565b6112b857600080fd5b6112c285856110eb565b50505050505050565b60008054600160a01b900460ff161561131e576040805162461bcd60e51b815260206004820152601060248201526f14185d5cd8589b194e881c185d5cd95960821b604482015290519081900360640190fd5b3360009081526006602090815260408083206001600160a01b038716845290915290205461134c9083611442565b3360008181526006602090815260408083206001600160a01b0389168085529083529281902085905580519485525191937f8c5be1e5ebec7d5bd14f71427d1e84f3dd0314c0f7b2291e5b200ac8c7c3b925929081900390910190a350600192915050565b60008054600160a01b900460ff1615611404576040805162461bcd60e51b815260206004820152601060248201526f14185d5cd8589b194e881c185d5cd95960821b604482015290519081900360640190fd5b506001600160a01b03918216600090815260066020908152604080832093909416825291909152205490565b60008282111561143c57fe5b50900390565b60008282018381101561145157fe5b9392505050565b6000806114cc8888888860405160200180856001600160a01b03166001600160a01b031660601b8152601401846001600160a01b03166001600160a01b031660601b8152601401838152602001828152602001945050505050604051602081830303815290604052805190602001206114f8565b9050826001600160a01b03166114e28286611549565b6001600160a01b03161498975050505050505050565b604080517f19457468657265756d205369676e6564204d6573736167653a0a333200000000602080830191909152603c8083019490945282518083039094018452605c909101909152815191012090565b600080600080611558856115d0565b92509250925060018684848460405160008152602001604052604051808581526020018460ff1660ff1681526020018381526020018281526020019450505050506020604051602081039080840390855afa1580156115bb573d6000803e3d6000fd5b5050604051601f190151979650505050505050565b600080600083516041146115e357600080fd5b5050506020810151604082015160609092015160001a9290919056fe4f776e61626c653a2063616c6c6572206973206e6f7420746865206f776e6572a264697066735822122052b97fdd727e344a76403fb32f5a2bdbe0eddeca3b528ff49dde0674f1773f8964736f6c63430006080033",
  "immutableReferences": {},
  "source": "//SPDX-License-Identifier: UNLICENSED\n\npragma solidity ^0.6.8;\n\nimport './interfaces/IERC20.sol';\nimport './libraries/SafeMath.sol';\nimport \"./ownership/Ownable.sol\";\nimport \"./lifecycle/Pausable.sol\";\n\ncontract ERC20 is IERC20, Ownable, Pausable {\n\n    using SafeMath for uint;\n\n    string internal _name;\n    string internal _symbol;\n    uint8 internal _decimals;\n    uint256 internal _totalSupply;\n\n    mapping(address => uint256) internal _balances;\n    mapping(address => mapping(address => uint256)) internal _allowed;\n\n    event Mint(address indexed minter, address indexed account, uint256 amount);\n    event Burn(address indexed burner, address indexed account, uint256 amount);\n\n    constructor (\n        string memory name,\n        string memory symbol,\n        uint8 decimals,\n        uint256 totalSupply\n    ) public\n    {\n        _symbol = symbol;\n        _name = name;\n        _decimals = decimals;\n        _totalSupply = totalSupply;\n        _balances[msg.sender] = totalSupply;\n    }\n\n    function name(\n    ) public view returns (string memory)\n    {\n        return _name;\n    }\n\n    function symbol(\n    ) public view returns (string memory)\n    {\n        return _symbol;\n    }\n\n    function decimals(\n    ) public view returns (uint8)\n    {\n        return _decimals;\n    }\n\n    function totalSupply(\n    ) public view returns (uint256)\n    {\n        return _totalSupply;\n    }\n\n    function transfer(\n        address _to,\n        uint256 _value\n    ) public override\n    whenNotPaused\n    returns (bool)\n    {\n        require(_to != address(0), 'ERC20: to address is not valid');\n        require(_value <= _balances[msg.sender], 'ERC20: insufficient balance');\n\n        _balances[msg.sender] = SafeMath.sub(_balances[msg.sender], _value);\n        _balances[_to] = SafeMath.add(_balances[_to], _value);\n\n        emit Transfer(msg.sender, _to, _value);\n\n        return true;\n    }\n\n    function balanceOf(\n        address _owner\n    ) public override view returns (uint256 balance)\n    {\n        return _balances[_owner];\n    }\n\n    /// settle receipt to chain\n    function commitReceiptTransaction(address _from, address _to,\n        uint256 amount, uint256 nonce, bytes memory _sender_signature,\n        bytes memory _recipient_signature) public {\n\n//        require(msg.sender == recipient);\n        require(isValidSignature(_from, _to, amount, nonce, _sender_signature, _from));\n\n        transfer(_to, amount);\n\n    }\n\n    function isValidSignature(address _from, address _to, uint256 amount, uint256 nonce, bytes memory signature, address _signer)\n    internal\n    view\n    returns (bool)\n    {\n        bytes32 message = prefixed(keccak256(abi.encodePacked(_from, _to, amount, nonce)));\n\n        // check that the signature is from the payment sender\n        return recoverSigner(message, signature) == _signer;\n    }\n\n    function recoverSigner(bytes32 message, bytes memory sig)\n    internal\n    pure\n    returns (address)\n    {\n        (uint8 v, bytes32 r, bytes32 s) = splitSignature(sig);\n\n        return ecrecover(message, v, r, s);\n    }\n\n    function splitSignature(bytes memory sig)\n    internal\n    pure\n    returns (uint8 v, bytes32 r, bytes32 s)\n    {\n        require(sig.length == 65);\n\n        assembly {\n        // first 32 bytes, after the length prefix\n            r := mload(add(sig, 32))\n        // second 32 bytes\n            s := mload(add(sig, 64))\n        // final byte (first byte of the next 32 bytes)\n            v := byte(0, mload(add(sig, 96)))\n        }\n\n        return (v, r, s);\n    }\n\n    /// builds a prefixed hash to mimic the behavior of eth_sign.\n    function prefixed(bytes32 hash) internal pure returns (bytes32) {\n        return keccak256(abi.encodePacked(\"\\x19Ethereum Signed Message:\\n32\", hash));\n    }\n\n\n    function approve(\n        address _spender,\n        uint256 _value\n    ) public override\n    whenNotPaused\n    returns (bool)\n    {\n        _allowed[msg.sender][_spender] = _value;\n\n        emit Approval(msg.sender, _spender, _value);\n\n        return true;\n    }\n\n    function transferFrom(\n        address _from,\n        address _to,\n        uint256 _value\n    ) public override\n    whenNotPaused\n    returns (bool)\n    {\n        require(_from != address(0), 'ERC20: from address is not valid');\n        require(_to != address(0), 'ERC20: to address is not valid');\n        require(_value <= _balances[_from], 'ERC20: insufficient balance');\n        require(_value <= _allowed[_from][msg.sender], 'ERC20: from not allowed');\n\n        _balances[_from] = SafeMath.sub(_balances[_from], _value);\n        _balances[_to] = SafeMath.add(_balances[_to], _value);\n        _allowed[_from][msg.sender] = SafeMath.sub(_allowed[_from][msg.sender], _value);\n\n        emit Transfer(_from, _to, _value);\n\n        return true;\n    }\n\n    function allowance(\n        address _owner,\n        address _spender\n    ) public override view\n    whenNotPaused\n    returns (uint256)\n    {\n        return _allowed[_owner][_spender];\n    }\n\n    function increaseApproval(\n        address _spender,\n        uint _addedValue\n    ) public\n    whenNotPaused\n    returns (bool)\n    {\n        _allowed[msg.sender][_spender] = SafeMath.add(_allowed[msg.sender][_spender], _addedValue);\n\n        emit Approval(msg.sender, _spender, _allowed[msg.sender][_spender]);\n\n        return true;\n    }\n\n    function decreaseApproval(\n        address _spender,\n        uint _subtractedValue\n    ) public\n    whenNotPaused\n    returns (bool)\n    {\n        uint oldValue = _allowed[msg.sender][_spender];\n\n        if (_subtractedValue > oldValue) {\n            _allowed[msg.sender][_spender] = 0;\n        } else {\n            _allowed[msg.sender][_spender] = SafeMath.sub(oldValue, _subtractedValue);\n        }\n\n        emit Approval(msg.sender, _spender, _allowed[msg.sender][_spender]);\n\n        return true;\n    }\n\n    function mintTo(\n        address _to,\n        uint _amount\n    ) public\n    whenNotPaused\n    onlyOwner\n    {\n        require(_to != address(0), 'ERC20: to address is not valid');\n        require(_amount > 0, 'ERC20: amount is not valid');\n\n        _totalSupply = _totalSupply.add(_amount);\n        _balances[_to] = _balances[_to].add(_amount);\n\n        emit Mint(msg.sender, _to, _amount);\n    }\n\n    function burnFrom(\n        address _from,\n        uint _amount\n    ) public\n    whenNotPaused\n    onlyOwner\n    {\n        require(_from != address(0), 'ERC20: from address is not valid');\n        require(_balances[_from] >= _amount, 'ERC20: insufficient balance');\n\n        _balances[_from] = _balances[_from].sub(_amount);\n        _totalSupply = _totalSupply.sub(_amount);\n\n        emit Burn(msg.sender, _from, _amount);\n    }\n\n}\n",
  "sourcePath": "/media/bereket/secondary_drive/playground/token-erc-20/contracts/ERC20.sol",
  "compiler": {
    "name": "solc",
    "version": "0.6.8+commit.0bbfe453.Emscripten.clang"
  },
  "schemaVersion": "3.1.0",
  "updatedAt": "2021-05-02T19:46:03.104Z",
  "networkType": "ethereum",
  "devdoc": {
    "methods": {}
  },
  "userdoc": {
    "methods": {
      "commitReceiptTransaction(address,address,uint256,uint256,bytes,bytes)": {
        "notice": "settle receipt to chain"
      }
    }
  }
}